:020000040800F2
:100000000028002055150008A51500089D0B0008C4
:10001000A50B0008AD0B0008B50B000800000000A0
:10002000000000000000000000000000BD0B000800
:10003000A515000800000000C51100088D13000878
:10004000A5150008A5150008A5150008A5150008A8
:10005000A5150008A5150008710100089501000804
:10006000B9010008DD01000801020008A51500081B
:10007000A5150008A5150008A5150008A515000878
:10008000A5150008A5150008A5150008A515000868
:10009000A5150008A5150008A515000825020008EB
:1000A000A5150008A5150008A5150008A515000848
:1000B000A5150008A5150008A5150008910600085B
:1000C0001D08000829080008B5090008C109000832
:1000D000450A0008C90A0008DD0A0008F10A0008FC
:1000E000D5020008A515000800000000A5150008AD
:1000F000A5150008A5150008A5150008A5150008F8
:10010000A5150008A5150008A5150008A5150008E7
:10011000A5150008A5150008A5150008A5150008D7
:10012000A5150008A5150008A5150008A5150008C7
:1001300010B5054C237833B9044B13B10448AFF321
:1001400000800123237010BD00000020000000008B
:100150005017000808B5034B1BB103490348AFF320
:10016000008008BD000000000400002050170008B7
:1001700080B500AF054B5B69044A43F0010353614E
:10018000034B1B68984700BF80BD00BF00040140BF
:100190001C00002080B500AF054B5B69044A43F0AA
:1001A00002035361034B5B68984700BF80BD00BFEB
:1001B000000401401C00002080B500AF054B5B69C6
:1001C000044A43F004035361034B9B68984700BF04
:1001D00080BD00BF000401401C00002080B500AFBE
:1001E000054B5B69044A43F008035361034BDB682A
:1001F000984700BF80BD00BF000401401C000020E4
:1002000080B500AF054B5B69044A43F010035361AE
:10021000034B1B69984700BF80BD00BF000401402D
:100220001C00002080B500AF284B5B6903F0200361
:10023000002B09D0254B5B69244A43F0200353610E
:10024000234B5B6998473EE0204B5B6903F040031A
:10025000002B09D01D4B5B691C4A43F040035361DE
:100260001B4B9B6998472EE0184B5B6903F080039A
:10027000002B09D0154B5B69144A43F0800353618E
:10028000134BDB6998471EE0104B5B6903F48073E6
:10029000002B09D00D4B5B690C4A43F4807353610A
:1002A0000B4B1B6A98470EE0084B5B6903F4007325
:1002B000002B08D0054B5B69044A43F4007353617B
:1002C000034B5B6A984700BF80BD00BF000401403C
:1002D0001C00002080B500AF304B5B6903F48063E5
:1002E000002B09D02D4B5B692C4A43F4806353618A
:1002F0002B4B9B6A98474EE0284B5B6903F40063E5
:10030000002B09D0254B5B69244A43F400635361F9
:10031000234BDB6A98473EE0204B5B6903F4805334
:10032000002B09D01D4B5B691C4A43F48053536179
:100330001B4B1B6B98472EE0184B5B6903F4005373
:10034000002B09D0154B5B69144A43F400535361E9
:10035000134B5B6B98471EE0104B5B6903F48043C3
:10036000002B09D00D4B5B690C4A43F48043536169
:100370000B4B9B6B98470EE0084B5B6903F4004303
:10038000002B08D0054B5B69044A43F400435361DA
:10039000034BDB6B984700BF80BD00BF00040140EA
:1003A0001C00002080B483B000AF78600B46FB7067
:1003B000FB78202B00F2668101A252F823F000BFE7
:1003C000450400085B040008710400088704000865
:1003D0009B040008AF040008C3040008D704000809
:1003E000EB040008FF0400081305000829050008B5
:1003F0003F050008550500086B0500088105000849
:1004000097050008AD050008C1050008D5050008DE
:10041000E9050008FD05000811060008110600089E
:10042000250600083B0600084F060008E9050008FD
:10043000FD050008FD05000811060008110600086A
:10044000630600087B685B6803F48073B3F5807F04
:100450000CBF01230023DBB215E17B685B6803F46A
:100460000073B3F5007F0CBF01230023DBB20AE168
:100470007B685B6803F48063B3F5806F0CBF012376
:100480000023DBB2FFE07B685B6903F00103012B13
:100490000CBF01230023DBB2F5E07B685B6903F04E
:1004A0000203022B0CBF01230023DBB2EBE07B68CD
:1004B0005B6903F00403042B0CBF01230023DBB2B0
:1004C000E1E07B685B6903F00803082B0CBF0123A4
:1004D0000023DBB2D7E07B685B6903F01003102BCD
:1004E0000CBF01230023DBB2CDE07B685B6903F026
:1004F0004003402B0CBF01230023DBB2C3E07B6829
:100500005B6903F08003802B0CBF01230023DBB267
:10051000B9E07B685B6903F48073B3F5807F0CBF3F
:1005200001230023DBB2AEE07B685B6903F4007358
:10053000B3F5007F0CBF01230023DBB2A3E07B688F
:100540005B6903F48063B3F5806F0CBF0123002364
:10055000DBB298E07B685B6903F40063B3F5006F7E
:100560000CBF01230023DBB28DE07B685B6903F4E1
:100570008053B3F5805F0CBF01230023DBB282E020
:100580007B685B6903F48043B3F5804F0CBF0123A4
:100590000023DBB277E07B685B6903F40043B3F5CB
:1005A000004F0CBF01230023DBB26CE07B689B692A
:1005B00003F00103012B0CBF01230023DBB262E037
:1005C0007B689B6903F00203022B0CBF012300230D
:1005D000DBB258E07B689B6903F00403042B0CBF7B
:1005E00001230023DBB24EE07B685B6903F002036A
:1005F000022B0CBF01230023DBB244E07B685B6964
:1006000003F04003402B0CBF01230023DBB23AE090
:100610007B685B6903F08003802B0CBF0123002300
:10062000DBB230E07B685B6903F48063B3F5806F15
:100630000CBF01230023DBB225E07B685B6903F07C
:100640001003102B0CBF01230023DBB21BE07B68DF
:100650005B6903F00103012B0CBF01230023DBB214
:1006600011E07B685B6903F08003802B07D17B6816
:100670005B6903F00403042B01D1012300E0002394
:10068000DBB200E0002318460C37BD4680BC704743
:1006900080B500AF11215F48FFF784FE0346002BB1
:1006A00056D112215B48FFF77DFE0346012B4FD147
:1006B00014215848FFF776FE0346012B05D1564B0F
:1006C0005B69002098470123A1E016215148FFF7FC
:1006D00069FE0346012B13D113214E48FFF762FE3A
:1006E0000346012B0CD102214A48FFF75BFE03466B
:1006F000012B05D1484B5B6901209847012386E017
:1007000015214448FFF74EFE0346012B13D1132158
:100710004048FFF747FE0346002B0CD102213D481D
:10072000FFF740FE0346012B05D13B4B5B690220DE
:10073000984701236BE019213648FFF733FE034643
:10074000012B05D1344B5B690320984701235EE000
:1007500011213048FFF726FE0346012B56D1122106
:100760002C48FFF71FFE0346012B4FD11A212948C1
:10077000FFF718FE0346012B05D1274B5B690420C8
:100780009847012343E01B212248FFF70BFE034655
:10079000012B05D1204B5B6905209847012336E0EA
:1007A0001E211C48FFF7FEFD0346012B13D1132128
:1007B0001848FFF7F7FD0346012B0CD1022115481D
:1007C000FFF7F0FD0346012B05D1134B5B690620B3
:1007D000984701231BE008210E48FFF7E3FD03467D
:1007E000012B13D113210B48FFF7DCFD0346002B2F
:1007F0000CD102210748FFF7D5FD0346012B05D197
:10080000054B5B6907209847012300E00023184649
:1008100080BD00BF005400405800002080B400AFED
:1008200000BFBD4680BC704780B500AF11215F4856
:10083000FFF7B8FD0346002B56D112215B48FFF7A6
:10084000B1FD0346012B4FD114215848FFF7AAFDF3
:100850000346012B05D1564BDB6A00209847012344
:10086000A1E016215148FFF79DFD0346012B13D14E
:1008700013214E48FFF796FD0346012B0CD10221B0
:100880004A48FFF78FFD0346012B05D1484BDB6A31
:1008900001209847012386E015214448FFF782FD97
:1008A0000346012B13D113214048FFF77BFD03467C
:1008B000002B0CD102213D48FFF774FD0346012BAC
:1008C00005D13B4BDB6A0220984701236BE01921DD
:1008D0003648FFF767FD0346012B05D1344BDB6A31
:1008E0000320984701235EE011213048FFF75AFDAD
:1008F0000346012B56D112212C48FFF753FD034626
:10090000012B4FD11A212948FFF74CFD0346012B3B
:1009100005D1274BDB6A04209847012343E01B21C4
:100920002248FFF73FFD0346012B05D1204BDB6A30
:1009300005209847012336E01E211C48FFF732FDB1
:100940000346012B13D113211848FFF72BFD034653
:10095000012B0CD102211548FFF724FD0346012B82
:1009600005D1134BDB6A0620984701231BE00821C1
:100970000E48FFF717FD0346012B13D113210B4837
:10098000FFF710FD0346002B0CD102210748FFF7AB
:1009900009FD0346012B05D1054BDB6A072098476B
:1009A000012300E00023184680BD00BF005800402E
:1009B0005800002080B400AF00BFBD4680BC704727
:1009C00080B582B000AF00233B711C4B9B6803F0E5
:1009D0000103DAB23B7962F300033B71174B9B686A
:1009E0005B0803F00103DAB23B7962F341033B7128
:1009F000124B9B681B0903F00103DAB23B7962F3E7
:100A000004133B710D4B9B685B0903F00103DAB2E1
:100A10003B7962F345133B71084B9B689B0903F0DC
:100A20000103DAB23B7962F386133B71044B1B6915
:100A30003879984700BF0837BD4680BD0030014077
:100A40008800002080B582B000AF00233B711C4BB2
:100A50009B6803F00103DAB23B7962F300033B7158
:100A6000174B9B685B0803F00103DAB23B7962F332
:100A700041033B71124B9B681B0903F00103DAB27F
:100A80003B7962F304133B710D4B9B685B0903F0E8
:100A90000103DAB23B7962F345133B71084B9B6863
:100AA0009B0903F00103DAB23B7962F386133B71D1
:100AB000044B5B6A3879984700BF0837BD4680BD54
:100AC000003800408800002080B500AF024B1B6951
:100AD000984700BF80BD00BFB000002080B500AFC8
:100AE000024B5B6A984700BF80BD00BFB00000208A
:100AF00080B500AF024B9B6B984700BF80BD00BF25
:100B0000B000002080B483B000AF03463960FB80A2
:100B1000B7F90630002B0ADB3B68DAB20C49B7F9AB
:100B200006305201D2B20B4483F800230AE03B683E
:100B3000DAB20849FB8803F00F03043B5201D2B23A
:100B40000B441A7600BF0C37BD4680BC704700BF0F
:100B500000E100E000ED00E080B582B000AF786019
:100B60007B68013BB3F1807F01D301230FE00A4A88
:100B70007B68013B536007214FF0FF30FFF7C2FF56
:100B8000054B00229A60044B07221A600023184686
:100B90000837BD4680BD00BF10E000E080B400AF64
:100BA00000BFFDE780B400AF00BFFDE780B400AF39
:100BB00000BFFDE780B400AF00BFFDE71EF0040FEB
:100BC0000CBFEFF30880EFF3098000F0D5B800BF49
:100BD00080B500AFFF216FF00100FFF793FF00BF6A
:100BE00080BD80B582B000AF786039607B683A68BC
:100BF00002FB03F31846FFF7AFFF00BF0837BD46FF
:100C000080BD000080B500AF0E4B002283F8A82104
:100C100000F0E8F864220C490C4800F0C4FC0C4BCE
:100C20000C4A07CA03C31A800B4BFF225A600A4BB7
:100C30000A4A9A60084B64221A60074800F010F8CC
:100C400000BF80BDEC000020980200202804002096
:100C500048040020681700083C040020950E000896
:100C600080B582B000AF7860194BD3F898217B68CB
:100C7000DA627B68DA6A7B681B68D21A7B681A635F
:100C80007B68DB6A1A467B685A637B681B6B083B90
:100C90000F4AC2F89831786800F0C2F87B685A6849
:100CA0007B689A637B68002283F83C20084BD3F86A
:100CB0009C3107497A6841F82320054BD3F89C31D1
:100CC0000133034AC2F89C3100BF0837BD4680BDDE
:100CD000EC00002080B483B000AF78607B68012214
:100CE00083F83C2000DF00BF0C37BD4680BC704756
:100CF00080B483B000AF78607B68002283F83C202A
:100D000001DF00BF0C37BD4680BC704780B582B0A4
:100D100000AF174B012283F8A821154B154AC3F8E1
:100D2000A021134BD3F8A031032283F83C20104BB1
:100D3000D3F8A031DB6A7B607B6883F3098800BF4E
:100D40004FF47A710820FFF74CFFEFF3148040F066
:100D5000020080F31488EFF3148040F0010080F368
:100D60001488044B9B68984700BF0837BD4680BD78
:100D7000EC0000203C04002080B584B000AF786017
:100D80007B6818331B68023B1B78FB60FB68012BF8
:100D900003D9FB68022B18D01BE000F089F80F4B39
:100DA00093F8A831012B13D100F0AAF80B4BD3F81C
:100DB000A4210A4BD3F8A0319A4209D0084B5B68B2
:100DC000074A43F08053536002E000F071F800E0FE
:100DD00000BF00BF1037BD4680BD00BFEC00002043
:100DE00000ED00E080B400AF0B4A0C4BC3F890213B
:100DF0000A4BD3F89031A3F50063084AC2F8943146
:100E0000064BD3F89431083B044AC2F8983100BF2E
:100E1000BD4680BC704700BF00280020EC000020C9
:100E200080B485B000AF78607B68DB6A1A467B6867
:100E30005A637B685B6B4FF080721A607B685B6BF8
:100E40001A1F7B685A637B689A687B685B6B1A60C1
:100E50007B685B6B1A1F7B685A637B685B6B6FF008
:100E600002021A600023FB730BE07B685B6B1A1FA6
:100E70007B685A637B685B6B00221A60FB7B0133E3
:100E8000FB73FB7B0C2BF0D900BF00BF1437BD46B2
:100E900080BC704780B400AF044B1B6883F0010333
:100EA000024A136000BF00BFF6E700BF8C040020B9
:100EB00080B582B000AF00237B600F4BD3F89C312C
:100EC00019460D4800F098F808E07B6893F83C302C
:100ED000002B03D07B68012283F83C203B1D194680
:100EE000064800F0D5FB0346022BEED100F0D0F807
:100EF00000BF0837BD4680BDEC000020280400205C
:100F000080B500AF374B1B69002B16D1364BD3F899
:100F1000A03193F83C30002B06D0334BD3F8A031EE
:100F2000314AC2F8A4315CE02F4B304AC3F8A42107
:100F30002E4B032283F83C2053E02D49294800F032
:100F4000A7FB294BD3F8A03193F83C30002B06D1F6
:100F5000254BD3F8A431032283F83C2041E0224BF7
:100F6000D3F8A0319A6B204BD3F8A4319B6B9A42F3
:100F700010D21F491B4800F041FB1B4BD3F8A43192
:100F8000022283F83C20184BD3F8A031164AC2F84D
:100F9000A43126E0144BD3F8A0319A6B124BD3F84E
:100FA000A4319B6B9A4210D112490E4800F026FBE7
:100FB0000D4BD3F8A031022283F83C200A4BD3F822
:100FC000A431032283F83C200BE0074BD3F8A03177
:100FD000012283F83C20044BD3F8A431032283F888
:100FE0003C2080BD28040020EC0000203C040020B0
:100FF000900200208C02002080B487B000AF78609F
:1010000039600023FB6000237B6136E000233B61F5
:1010100029E03B699B007A6813441B689A6B3B6923
:1010200001339B0079680B441B689B6B9A4217D96C
:101030003B699B007A6813441B68FB603B69013382
:101040009B007A681A443B699B0079680B441268DC
:101050001A603B6901339B007A681344FA681A608E
:101060003B6901333B613A687B69D31A013B3A69BA
:101070009A42CED37B6901337B613B68013B7A693D
:101080009A42C3D300BF00BF1C37BD4680BC704727
:1010900080B584B000AF0023FB6000237B60002399
:1010A000BB6038E0224AFB6852F823307B60FB6863
:1010B00001331F4A52F82330BB607B6893F83C3001
:1010C000012B25D17B689A6BBB689B6B9A4206D338
:1010D000174BD3F89C31013BFA689A4209D13B1D6A
:1010E0001946144800F08AFA7B68022283F83C20F3
:1010F00019E07B689A6BBB689B6B9A4208D13B1DD9
:1011000019460C4800F07AFA7B68022283F83C20EA
:10111000FB680133FB60064BD3F89C31013BFA6856
:101120009A42BFD300BF00BF1037BD4680BD00BF8D
:10113000EC0000202804002080B483B000AF00231E
:101140007B602FE01E4A7B6852F8233093F83C30D6
:10115000002B24D11A4A7B6852F8233093F8403090
:10116000012B1CD1164A7B6852F823305A6C013A85
:101170005A64134A7B6852F823305B6C002B0ED103
:101180000F4A7B6852F82330002283F840200C4A33
:101190007B6852F82330012283F83C2002DF7B6811
:1011A00001337B60064BD3F89C31013B7A689A424D
:1011B000C8D300BF00BF0C37BD4680BC704700BF1E
:1011C000EC000020EFF309831C4622466E4BD3F857
:1011D000A0315A636C4BD3F8A0315A6B043A5A636E
:1011E000694BD3F8A0315B6B5A461A60664BD3F853
:1011F000A0315A6B043A5A63634BD3F8A0315B6B4E
:1012000052461A60604BD3F8A0315A6B043A5A63C5
:101210005D4BD3F8A0315B6B4A461A605A4BD3F84A
:10122000A0315A6B043A5A63574BD3F8A0315B6B29
:1012300042461A60544BD3F8A0315A6B043A5A63B1
:10124000514BD3F8A0315B6B3A461A604E4BD3F842
:10125000A0315A6B043A5A634B4BD3F8A0315B6B05
:1012600032461A60484BD3F8A0315A6B043A5A639D
:10127000454BD3F8A0315B6B2A461A60424BD3F83A
:10128000A0315A6B043A5A633F4BD3F8A0315B6BE1
:1012900022461A603C4BD3F8A4315B6B1B681C469A
:1012A000394BD3F8A4315A6B04325A63364BD3F816
:1012B000A4315B6B1B681D46334BD3F8A4315A6BCA
:1012C00004325A63304BD3F8A4315B6B1B681E4663
:1012D0002D4BD3F8A4315A6B04325A632A4BD3F8FE
:1012E000A4315B6B1B681F46274BD3F8A4315A6BA4
:1012F00004325A63244BD3F8A4315B6B1B689846C5
:10130000214BD3F8A4315A6B04325A631E4BD3F8E5
:10131000A4315B6B1B6899461B4BD3F8A4315A6B05
:1013200004325A63184BD3F8A4315B6B1B689A469E
:10133000154BD3F8A4315A6B04325A63124BD3F8CD
:10134000A4315B6B1B689B460F4BD3F8A4315A6BDF
:1013500004325A630C4BD3F8A4315B6B1C4684F304
:10136000098800BF084BD3F8A431002B09D0064BE5
:10137000D3F8A431044AC2F8A031034B0022C3F8C9
:10138000A421704700BF00BFEC00002080B500AF73
:101390000C4B1B6883F001030A4A1360FFF7CCFE75
:1013A000FFF7AEFD084BD3F8A421074BD3F8A031CB
:1013B0009A4205D0054B5B68044A43F08053536062
:1013C00000BF80BD90040020EC00002000ED00E094
:1013D00080B485B000AF786039600023FB6008E01E
:1013E0007B681B6883F001027B681A60FB6801332D
:1013F000FB60FA683B689A42F2D300BF00BF143723
:10140000BD4680BC7047000080B500AF6421044831
:10141000FFF7DEFF0348FFF76BFC00BFF6E700BFF6
:10142000840500209404002080B500AF64210748A3
:10143000FFF7CEFF0648FFF75BFC64210348FFF788
:10144000C7FF0448FFF746FC00BFEFE78805002010
:10145000E40400209404002080B500AFC8210448B3
:10146000FFF7B6FF0348FFF735FC00BFF6E700BF04
:101470008C050020E404002080B500AFFFF7C2FB1C
:10148000284B294A92E8030018600433198002337C
:101490000A0C1A70254B00225A60244B244A9A6089
:1014A000224B64221A602148FFF7DAFB214B224AC3
:1014B00092E8030018600433198002330A0C1A7092
:1014C0001E4B01225A601D4B1D4A9A601B4B642221
:1014D0001A601A48FFF7C4FB1A4B1B4A92E8030034
:1014E00018600433198002330A0C1A70174B022259
:1014F0005A60164B164A9A60144B64221A601348BD
:10150000FFF7AEFB0948FFF7E5FB0C48FFF7E2FBEE
:101510000E48FFF7DFFBFFF75BFBFFF7F7FB00BFB2
:10152000FDE700BFA0040020741700089404002009
:1015300009140008F00400207C170008E4040020CF
:1015400029140008400500208417000834050020F5
:10155000591400080D488546AFF300800C480D492A
:101560000D4A002302E0D458C4500433C4188C42FE
:10157000F9D30A4A0A4C002301E013600432A24264
:10158000FBD300F0C1F8FFF777FFFEE7002800204B
:101590000000002000000020941700080000002038
:1015A00090050020FEE780B485B000AFF860B96018
:1015B0007A60FB687A681A60FB68BA685A60FB68F0
:1015C0005A68FB689A60FB685A68FB68DA60FB68D7
:1015D00000221A61FB685B68002B07D0FB689B68E0
:1015E000002B03D0FB68DB68002B01D1032300E054
:1015F000002318461437BD4680BC704780B483B0C2
:1016000000AF786039607B685B68002B07D07B682F
:101610009B68002B03D07B68DB68002B01D1032380
:1016200031E07B681A697B681B689A4201D101230B
:1016300029E07B681B69002B07D17B685A687B68AF
:101640009A607B685A687B68DA607B689B683A6856
:1016500012681A607B689B681A1D7B689A607B68B9
:101660001B695A1C7B681A617B689A687B68596899
:101670007B681B689B000B449A4203D17B685A68C5
:101680007B689A60002318460C37BD4680BC7047C3
:1016900080B483B000AF786039607B685B68002BF2
:1016A00007D07B689B68002B03D07B68DB68002B2E
:1016B00001D1032323E07B681B69002B01D10223A6
:1016C0001DE07B68DB681A683B681A607B68DB6832
:1016D0001A1D7B68DA607B681B695A1E7B681A6179
:1016E0007B68DA687B6859687B681B689B000B44E1
:1016F0009A4203D17B685A687B68DA6000231846F7
:101700000C37BD4680BC704770B500260C4D0D4CA3
:10171000641BA410A64209D100F01AF800260A4D55
:101720000A4C641BA410A64205D170BD55F8043BB9
:1017300098470136EEE755F8043B98470136F2E743
:101740008C1700088C1700088C17000890170008E9
:10175000F8B500BFF8BC08BC9E467047F8B500BF9E
:08176000F8BC08BC9E4670476E
:1017680049444C45205461736B0000005461736B0D
:10177800203100005461736B203200005461736B98
:04178800203300000A
:04178C0055010008FB
:04179000310100081B
:040000050800155585
:00000001FF
